{
  "address": "0x189094DA23910D5172a8617Ce38874E10C08B396",
  "abi": [
    {
      "inputs": [],
      "stateMutability": "nonpayable",
      "type": "constructor"
    },
    {
      "inputs": [],
      "name": "InvalidInitialization",
      "type": "error"
    },
    {
      "inputs": [],
      "name": "NotInitializing",
      "type": "error"
    },
    {
      "inputs": [],
      "name": "ReentrancyGuardReentrantCall",
      "type": "error"
    },
    {
      "anonymous": false,
      "inputs": [
        {
          "indexed": false,
          "internalType": "uint256",
          "name": "amount",
          "type": "uint256"
        }
      ],
      "name": "AfterDeliverPaymentReleased",
      "type": "event"
    },
    {
      "anonymous": false,
      "inputs": [
        {
          "indexed": true,
          "internalType": "address",
          "name": "buyer",
          "type": "address"
        }
      ],
      "name": "ContractCancelled",
      "type": "event"
    },
    {
      "anonymous": false,
      "inputs": [
        {
          "indexed": true,
          "internalType": "address",
          "name": "raisedBy",
          "type": "address"
        }
      ],
      "name": "DisputeRaised",
      "type": "event"
    },
    {
      "anonymous": false,
      "inputs": [
        {
          "indexed": false,
          "internalType": "bool",
          "name": "releasedToSeller",
          "type": "bool"
        }
      ],
      "name": "DisputeResolved",
      "type": "event"
    },
    {
      "anonymous": false,
      "inputs": [
        {
          "indexed": true,
          "internalType": "address",
          "name": "buyer",
          "type": "address"
        },
        {
          "indexed": true,
          "internalType": "address",
          "name": "seller",
          "type": "address"
        },
        {
          "indexed": false,
          "internalType": "address",
          "name": "escrowAddress",
          "type": "address"
        },
        {
          "indexed": false,
          "internalType": "uint256",
          "name": "totalAmount",
          "type": "uint256"
        },
        {
          "indexed": false,
          "internalType": "string",
          "name": "poCid",
          "type": "string"
        }
      ],
      "name": "EscrowCreated",
      "type": "event"
    },
    {
      "anonymous": false,
      "inputs": [
        {
          "indexed": false,
          "internalType": "uint256",
          "name": "amount",
          "type": "uint256"
        }
      ],
      "name": "FinalPaymentReleased",
      "type": "event"
    },
    {
      "anonymous": false,
      "inputs": [
        {
          "indexed": false,
          "internalType": "uint64",
          "name": "version",
          "type": "uint64"
        }
      ],
      "name": "Initialized",
      "type": "event"
    },
    {
      "anonymous": false,
      "inputs": [
        {
          "indexed": false,
          "internalType": "string",
          "name": "provider",
          "type": "string"
        },
        {
          "indexed": false,
          "internalType": "string",
          "name": "trackingNumber",
          "type": "string"
        }
      ],
      "name": "MarkedShipped",
      "type": "event"
    },
    {
      "anonymous": false,
      "inputs": [],
      "name": "ProductionFinished",
      "type": "event"
    },
    {
      "anonymous": false,
      "inputs": [
        {
          "indexed": false,
          "internalType": "uint256",
          "name": "amount",
          "type": "uint256"
        }
      ],
      "name": "ProductionPaymentReleased",
      "type": "event"
    },
    {
      "anonymous": false,
      "inputs": [
        {
          "indexed": false,
          "internalType": "string",
          "name": "cid",
          "type": "string"
        }
      ],
      "name": "ProductionUpdate",
      "type": "event"
    },
    {
      "anonymous": false,
      "inputs": [],
      "name": "SellerAccepted",
      "type": "event"
    },
    {
      "inputs": [],
      "name": "AfterDeliverAmount",
      "outputs": [
        {
          "internalType": "uint256",
          "name": "",
          "type": "uint256"
        }
      ],
      "stateMutability": "view",
      "type": "function"
    },
    {
      "inputs": [],
      "name": "BuyerclaimAfterDeadline",
      "outputs": [],
      "stateMutability": "nonpayable",
      "type": "function"
    },
    {
      "inputs": [],
      "name": "acceptContract",
      "outputs": [],
      "stateMutability": "nonpayable",
      "type": "function"
    },
    {
      "inputs": [],
      "name": "arbitrator",
      "outputs": [
        {
          "internalType": "address",
          "name": "",
          "type": "address"
        }
      ],
      "stateMutability": "view",
      "type": "function"
    },
    {
      "inputs": [],
      "name": "buyer",
      "outputs": [
        {
          "internalType": "address",
          "name": "",
          "type": "address"
        }
      ],
      "stateMutability": "view",
      "type": "function"
    },
    {
      "inputs": [
        {
          "internalType": "string",
          "name": "_metadataCid",
          "type": "string"
        }
      ],
      "name": "buyerCompletecontract",
      "outputs": [],
      "stateMutability": "nonpayable",
      "type": "function"
    },
    {
      "inputs": [],
      "name": "cancelContract",
      "outputs": [],
      "stateMutability": "nonpayable",
      "type": "function"
    },
    {
      "inputs": [],
      "name": "completed",
      "outputs": [
        {
          "internalType": "bool",
          "name": "",
          "type": "bool"
        }
      ],
      "stateMutability": "view",
      "type": "function"
    },
    {
      "inputs": [],
      "name": "confirmDelivery",
      "outputs": [],
      "stateMutability": "nonpayable",
      "type": "function"
    },
    {
      "inputs": [],
      "name": "createdAt",
      "outputs": [
        {
          "internalType": "uint256",
          "name": "",
          "type": "uint256"
        }
      ],
      "stateMutability": "view",
      "type": "function"
    },
    {
      "inputs": [],
      "name": "delivered",
      "outputs": [
        {
          "internalType": "bool",
          "name": "",
          "type": "bool"
        }
      ],
      "stateMutability": "view",
      "type": "function"
    },
    {
      "inputs": [],
      "name": "deliveredAt",
      "outputs": [
        {
          "internalType": "uint256",
          "name": "",
          "type": "uint256"
        }
      ],
      "stateMutability": "view",
      "type": "function"
    },
    {
      "inputs": [],
      "name": "deliveryDeadline",
      "outputs": [
        {
          "internalType": "uint256",
          "name": "",
          "type": "uint256"
        }
      ],
      "stateMutability": "view",
      "type": "function"
    },
    {
      "inputs": [],
      "name": "depositAndStartProduction",
      "outputs": [],
      "stateMutability": "payable",
      "type": "function"
    },
    {
      "inputs": [],
      "name": "deposited",
      "outputs": [
        {
          "internalType": "bool",
          "name": "",
          "type": "bool"
        }
      ],
      "stateMutability": "view",
      "type": "function"
    },
    {
      "inputs": [],
      "name": "disputeReason",
      "outputs": [
        {
          "internalType": "string",
          "name": "",
          "type": "string"
        }
      ],
      "stateMutability": "view",
      "type": "function"
    },
    {
      "inputs": [],
      "name": "disputed",
      "outputs": [
        {
          "internalType": "bool",
          "name": "",
          "type": "bool"
        }
      ],
      "stateMutability": "view",
      "type": "function"
    },
    {
      "inputs": [],
      "name": "factory",
      "outputs": [
        {
          "internalType": "address",
          "name": "",
          "type": "address"
        }
      ],
      "stateMutability": "view",
      "type": "function"
    },
    {
      "inputs": [],
      "name": "finishProduction",
      "outputs": [],
      "stateMutability": "nonpayable",
      "type": "function"
    },
    {
      "inputs": [],
      "name": "getProductionLogs",
      "outputs": [
        {
          "internalType": "string[]",
          "name": "",
          "type": "string[]"
        }
      ],
      "stateMutability": "view",
      "type": "function"
    },
    {
      "inputs": [
        {
          "internalType": "address",
          "name": "_buyer",
          "type": "address"
        },
        {
          "internalType": "address",
          "name": "_seller",
          "type": "address"
        },
        {
          "internalType": "address",
          "name": "_arbitrator",
          "type": "address"
        },
        {
          "internalType": "uint256",
          "name": "_totalAmount",
          "type": "uint256"
        },
        {
          "internalType": "string",
          "name": "_itemName",
          "type": "string"
        },
        {
          "internalType": "uint256",
          "name": "_quantity",
          "type": "uint256"
        },
        {
          "internalType": "uint256",
          "name": "_deliveryDurationSeconds",
          "type": "uint256"
        },
        {
          "internalType": "string",
          "name": "_poCid",
          "type": "string"
        }
      ],
      "name": "initialize",
      "outputs": [],
      "stateMutability": "nonpayable",
      "type": "function"
    },
    {
      "inputs": [],
      "name": "itemName",
      "outputs": [
        {
          "internalType": "string",
          "name": "",
          "type": "string"
        }
      ],
      "stateMutability": "view",
      "type": "function"
    },
    {
      "inputs": [
        {
          "internalType": "string",
          "name": "_shippingProvider",
          "type": "string"
        },
        {
          "internalType": "string",
          "name": "_trackingNumber",
          "type": "string"
        },
        {
          "internalType": "string",
          "name": "_shippingCid",
          "type": "string"
        },
        {
          "internalType": "string[]",
          "name": "_productionLogs",
          "type": "string[]"
        }
      ],
      "name": "markShipped",
      "outputs": [],
      "stateMutability": "nonpayable",
      "type": "function"
    },
    {
      "inputs": [],
      "name": "poCid",
      "outputs": [
        {
          "internalType": "string",
          "name": "",
          "type": "string"
        }
      ],
      "stateMutability": "view",
      "type": "function"
    },
    {
      "inputs": [],
      "name": "productionAmount",
      "outputs": [
        {
          "internalType": "uint256",
          "name": "",
          "type": "uint256"
        }
      ],
      "stateMutability": "view",
      "type": "function"
    },
    {
      "inputs": [
        {
          "internalType": "uint256",
          "name": "",
          "type": "uint256"
        }
      ],
      "name": "productionLogs",
      "outputs": [
        {
          "internalType": "string",
          "name": "",
          "type": "string"
        }
      ],
      "stateMutability": "view",
      "type": "function"
    },
    {
      "inputs": [],
      "name": "quantity",
      "outputs": [
        {
          "internalType": "uint256",
          "name": "",
          "type": "uint256"
        }
      ],
      "stateMutability": "view",
      "type": "function"
    },
    {
      "inputs": [
        {
          "internalType": "string",
          "name": "_reasonCid",
          "type": "string"
        }
      ],
      "name": "raiseDispute",
      "outputs": [],
      "stateMutability": "nonpayable",
      "type": "function"
    },
    {
      "inputs": [],
      "name": "remainingAmount",
      "outputs": [
        {
          "internalType": "uint256",
          "name": "",
          "type": "uint256"
        }
      ],
      "stateMutability": "view",
      "type": "function"
    },
    {
      "inputs": [
        {
          "internalType": "bool",
          "name": "releaseToSeller",
          "type": "bool"
        }
      ],
      "name": "resolveDispute",
      "outputs": [],
      "stateMutability": "nonpayable",
      "type": "function"
    },
    {
      "inputs": [],
      "name": "seller",
      "outputs": [
        {
          "internalType": "address",
          "name": "",
          "type": "address"
        }
      ],
      "stateMutability": "view",
      "type": "function"
    },
    {
      "inputs": [],
      "name": "sellerAccepted",
      "outputs": [
        {
          "internalType": "bool",
          "name": "",
          "type": "bool"
        }
      ],
      "stateMutability": "view",
      "type": "function"
    },
    {
      "inputs": [],
      "name": "sellerClaimAfterDeadline",
      "outputs": [],
      "stateMutability": "nonpayable",
      "type": "function"
    },
    {
      "inputs": [
        {
          "internalType": "string",
          "name": "_metadataCid",
          "type": "string"
        }
      ],
      "name": "sellerClaimFinalPayment",
      "outputs": [],
      "stateMutability": "nonpayable",
      "type": "function"
    },
    {
      "inputs": [],
      "name": "shipped",
      "outputs": [
        {
          "internalType": "bool",
          "name": "",
          "type": "bool"
        }
      ],
      "stateMutability": "view",
      "type": "function"
    },
    {
      "inputs": [],
      "name": "shippingCid",
      "outputs": [
        {
          "internalType": "string",
          "name": "",
          "type": "string"
        }
      ],
      "stateMutability": "view",
      "type": "function"
    },
    {
      "inputs": [],
      "name": "shippingProvider",
      "outputs": [
        {
          "internalType": "string",
          "name": "",
          "type": "string"
        }
      ],
      "stateMutability": "view",
      "type": "function"
    },
    {
      "inputs": [],
      "name": "status",
      "outputs": [
        {
          "internalType": "enum SupplyChainEscrow.Status",
          "name": "",
          "type": "uint8"
        }
      ],
      "stateMutability": "view",
      "type": "function"
    },
    {
      "inputs": [],
      "name": "totalAmount",
      "outputs": [
        {
          "internalType": "uint256",
          "name": "",
          "type": "uint256"
        }
      ],
      "stateMutability": "view",
      "type": "function"
    },
    {
      "inputs": [],
      "name": "trackingNumber",
      "outputs": [
        {
          "internalType": "string",
          "name": "",
          "type": "string"
        }
      ],
      "stateMutability": "view",
      "type": "function"
    },
    {
      "stateMutability": "payable",
      "type": "receive"
    }
  ],
  "transactionHash": "0xe8ab3227c2afdf0298290726e81d0e5778898b07c8da2c4d5a22cc992dbd4d40",
  "args": [],
  "numDeployments": 1,
  "solcInputHash": "d53cf0b36ff92e26cd6b560bcc6ad87e",
  "bytecode": "0x6080604052348015600f57600080fd5b506001600055601b601f565b60cf565b7ff0c57e16840df040f15088dc2f81fe391c3923bec73e23a9662efc9c229c6a00805468010000000000000000900460ff1615606e5760405163f92ee8a960e01b815260040160405180910390fd5b80546001600160401b039081161460cc5780546001600160401b0319166001600160401b0390811782556040519081527fc7f505b2f371ae2175ee4913f4499e1f2633a7b5936321eed1cdaeb6115181d29060200160405180910390a15b50565b612a90806100de6000396000f3fe60806040526004361061023f5760003560e01c80637bf6c1041161012e578063a890a41c116100ab578063dcdb98881161006f578063dcdb98881461063e578063eda5998f14610653578063eef49ee314610668578063f18a0f1014610682578063f439a3c3146106a257600080fd5b8063a890a41c146105a9578063ba446ae9146105c9578063bbdfbfba146105e8578063c45a015514610608578063cf09e0d01461062857600080fd5b806393b891c7116100f257806393b891c7146105275780639d9a7fe91461053c5780639e7d9d281461055d578063a38c46a414610573578063a50a1fe61461059357600080fd5b80637bf6c104146104b25780637f676219146104c757806389e1e82a146104cf5780639317ec6f146104ef5780639394acb51461051157600080fd5b8063416af8df116101bc57806361b60f6b1161018057806361b60f6b1461041a578063646ce5a81461043d5780636cc6cde1146104525780637150d8ae14610472578063725a3b4b1461049257600080fd5b8063416af8df146103b0578063526ff16f146103c557806357549eb0146103da5780635e10177b146103f0578063619d26711461040557600080fd5b80632b68bb2d116102035780632b68bb2d146103215780632b772c54146103385780633d3ac5b6146103585780633fca8f621461036e57806340401fea1461039b57600080fd5b80630695c46c1461024b57806308551a531461028157806317fc45e2146102b95780631a39d8ef146102dd578063200d2ed2146102f357600080fd5b3661024657005b600080fd5b34801561025757600080fd5b5060145461026c90600160201b900460ff1681565b60405190151581526020015b60405180910390f35b34801561028d57600080fd5b506002546102a1906001600160a01b031681565b6040516001600160a01b039091168152602001610278565b3480156102c557600080fd5b506102cf600a5481565b604051908152602001610278565b3480156102e957600080fd5b506102cf60055481565b3480156102ff57600080fd5b5060145461031490600160301b900460ff1681565b6040516102789190612335565b34801561032d57600080fd5b506103366106b7565b005b34801561034457600080fd5b50610336610353366004612412565b610823565b34801561036457600080fd5b506102cf60075481565b34801561037a57600080fd5b5061038e61038936600461244e565b610ab7565b60405161027891906124ad565b3480156103a757600080fd5b5061038e610b63565b3480156103bc57600080fd5b5061038e610b70565b3480156103d157600080fd5b5061038e610b7d565b3480156103e657600080fd5b506102cf600b5481565b3480156103fc57600080fd5b50610336610b8a565b34801561041157600080fd5b50610336610dbc565b34801561042657600080fd5b5060145461026c9065010000000000900460ff1681565b34801561044957600080fd5b5061038e610ee6565b34801561045e57600080fd5b506003546102a1906001600160a01b031681565b34801561047e57600080fd5b506001546102a1906001600160a01b031681565b34801561049e57600080fd5b506103366104ad366004612412565b610ef3565b3480156104be57600080fd5b5061038e610fe2565b610336610fef565b3480156104db57600080fd5b506103366104ea3660046124c7565b6112f5565b3480156104fb57600080fd5b506105046115a3565b60405161027891906124e9565b34801561051d57600080fd5b506102cf60065481565b34801561053357600080fd5b5061033661167c565b34801561054857600080fd5b5060145461026c906301000000900460ff1681565b34801561056957600080fd5b506102cf60125481565b34801561057f57600080fd5b5061033661058e36600461254e565b611791565b34801561059f57600080fd5b506102cf60085481565b3480156105b557600080fd5b506103366105c4366004612412565b611a0e565b3480156105d557600080fd5b5060145461026c90610100900460ff1681565b3480156105f457600080fd5b5060145461026c9062010000900460ff1681565b34801561061457600080fd5b506004546102a1906001600160a01b031681565b34801561063457600080fd5b506102cf60135481565b34801561064a57600080fd5b5061038e611bb3565b34801561065f57600080fd5b50610336611bc0565b34801561067457600080fd5b5060145461026c9060ff1681565b34801561068e57600080fd5b5061033661069d3660046126b9565b611de8565b3480156106ae57600080fd5b5061033661218e565b6001546001600160a01b03163314806106da57506002546001600160a01b031633145b61071c5760405162461bcd60e51b815260206004820152600e60248201526d139bdd08185d5d1a1bdc9a5e995960921b60448201526064015b60405180910390fd5b60145460ff16156107605760405162461bcd60e51b815260206004820152600e60248201526d105b1c9958591e48199d5b99195960921b6044820152606401610713565b6000601454600160301b900460ff1660088111156107805761078061231f565b146107e05760405162461bcd60e51b815260206004820152602a60248201527f43616e6e6f742063616e63656c206f6e6365206163636570746564206f7220696044820152696e2070726f677265737360b01b6064820152608401610713565b6014805460ff60301b1916660800000000000017905560405133907f127a6f1a35dab59c491a32a71869783bdb5702256f5709cb1e60f322ac1529d490600090a2565b6002546001600160a01b0316331461084d5760405162461bcd60e51b81526004016107139061276f565b601454600160201b900460ff16156108775760405162461bcd60e51b815260040161071390612793565b61087f6122f5565b60145462010000900460ff166108c75760405162461bcd60e51b815260206004820152600d60248201526c139bdd0819195b1a5d995c9959609a1b6044820152606401610713565b6014546301000000900460ff16156108f15760405162461bcd60e51b8152600401610713906127bb565b60125461090190621275006127fc565b421161094f5760405162461bcd60e51b815260206004820152601860248201527f496e7370656374696f6e20706572696f642061637469766500000000000000006044820152606401610713565b600880546000918290556014805466ff0000ff000000191666060000010000001790556002546040519192916001600160a01b039091169083908381818185875af1925050503d80600081146109c1576040519150601f19603f3d011682016040523d82523d6000602084013e6109c6565b606091505b5050905080610a095760405162461bcd60e51b815260206004820152600f60248201526e151c985b9cd9995c8819985a5b1959608a1b6044820152606401610713565b600480546001546040516378da4ce360e01b81526001600160a01b03928316936378da4ce393610a3d931691889101612815565b600060405180830381600087803b158015610a5757600080fd5b505af1158015610a6b573d6000803e3d6000fd5b505050507f38485e5f70532849a6ff078e9f0b0abdb13611aa6731e1fcf542912d6980efb282604051610aa091815260200190565b60405180910390a15050610ab46001600055565b50565b60108181548110610ac757600080fd5b906000526020600020016000915090508054610ae290612839565b80601f0160208091040260200160405190810160405280929190818152602001828054610b0e90612839565b8015610b5b5780601f10610b3057610100808354040283529160200191610b5b565b820191906000526020600020905b815481529060010190602001808311610b3e57829003601f168201915b505050505081565b60098054610ae290612839565b600e8054610ae290612839565b600d8054610ae290612839565b6001546001600160a01b03163314610bb45760405162461bcd60e51b815260040161071390612873565b610bbc6122f5565b601454600160201b900460ff1615610be65760405162461bcd60e51b815260040161071390612793565b601454610100900460ff16610c2b5760405162461bcd60e51b815260206004820152600b60248201526a139bdd081cda1a5c1c195960aa1b6044820152606401610713565b60145462010000900460ff1615610c785760405162461bcd60e51b8152602060048201526011602482015270105b1c9958591e4811195b1a5d995c9959607a1b6044820152606401610713565b600060646005546032610c8b9190612896565b610c9591906128ad565b6007819055600854909150610cab9082906128cf565b600855601480544260125566ff000000ff0000191666050000000100001790556002546040516000916001600160a01b03169083908381818185875af1925050503d8060008114610d18576040519150601f19603f3d011682016040523d82523d6000602084013e610d1d565b606091505b5050905080610d7a5760405162461bcd60e51b8152602060048201526024808201527f4661696c656420746f2073656e642061667465722064656c69766572207061796044820152631b595b9d60e21b6064820152608401610713565b6040518281527f2dfdb966e7190b3f914db51ef79ecbb965b770a4c249fa92121a9f42f6be35fa906020015b60405180910390a15050610dba6001600055565b565b6002546001600160a01b03163314610de65760405162461bcd60e51b81526004016107139061276f565b6000601454600160301b900460ff166008811115610e0657610e0661231f565b14610e535760405162461bcd60e51b815260206004820152601f60248201527f416c7265616479206163636570746564206f7220696e2070726f6772657373006044820152606401610713565b601354610e6390620151806127fc565b421115610ea25760405162461bcd60e51b815260206004820152600d60248201526c13d999995c88195e1c1a5c9959609a1b6044820152606401610713565b6014805466ffff0000000000191666010100000000001790556040517fe265a59e0d8e68fca2a95c22cc164b1922c5d69f1a31b63a5c35d59af3fa032090600090a1565b600c8054610ae290612839565b6001546001600160a01b0316331480610f1657506002546001600160a01b031633145b610f535760405162461bcd60e51b815260206004820152600e60248201526d139bdd08185d5d1a1bdc9a5e995960921b6044820152606401610713565b6014546301000000900460ff1615610f7d5760405162461bcd60e51b8152600401610713906127bb565b6014805464ff000000001916600160201b1790556011610f9d8282612931565b506014805460ff60301b1916660700000000000017905560405133907f0b3cd97b16a08a5c77357c276d248827ad32dfd56060f7c55d6255537ba3d96290600090a250565b60118054610ae290612839565b6001546001600160a01b031633146110195760405162461bcd60e51b815260040161071390612873565b6110216122f5565b60145465010000000000900460ff1661107c5760405162461bcd60e51b815260206004820152601860248201527f53656c6c6572206d7573742061636365707420666972737400000000000000006044820152606401610713565b60145460ff16156110c35760405162461bcd60e51b8152602060048201526011602482015270105b1c9958591e4819195c1bdcda5d1959607a1b6044820152606401610713565b600554341461110d5760405162461bcd60e51b815260206004820152601660248201527514d95b9908195e1858dd081d1bdd185b105b5bdd5b9d60521b6044820152606401610713565b6001601454600160301b900460ff16600881111561112d5761112d61231f565b1461117a5760405162461bcd60e51b815260206004820181905260248201527f4d7573742062652061636365707465642062792073656c6c65722066697273746044820152606401610713565b60135461118a90620151806127fc565b4211156111c95760405162461bcd60e51b815260206004820152600d60248201526c13d999995c88195e1c1a5c9959609a1b6044820152606401610713565b60006064600554601e6111dc9190612896565b6111e691906128ad565b60068190556005549091506111fc9082906128cf565b6008556014805466ff0000000000ff191666020000000000011790556002546040516000916001600160a01b03169083908381818185875af1925050503d8060008114611265576040519150601f19603f3d011682016040523d82523d6000602084013e61126a565b606091505b50509050806112c55760405162461bcd60e51b815260206004820152602160248201527f4661696c656420746f2073656e642070726f64756374696f6e207061796d656e6044820152601d60fa1b6064820152608401610713565b6040518281527f9a44608bcd034a9075640dd9f85f303467fa2fb447f3220e8268ab43f8e062eb90602001610da6565b6003546001600160a01b031633146113405760405162461bcd60e51b815260206004820152600e60248201526d2737ba1030b93134ba3930ba37b960911b6044820152606401610713565b6113486122f5565b601454600160201b900460ff1661138e5760405162461bcd60e51b815260206004820152600a6024820152694e6f206469737075746560b01b6044820152606401610713565b600854806113d45760405162461bcd60e51b81526020600482015260136024820152724e6f2066756e647320746f2072656c6561736560681b6044820152606401610713565b60006008556014805464ff000000001916905581156114af576014805466ff0000ff000000191666060000010000001790556002546040516000916001600160a01b03169083908381818185875af1925050503d8060008114611453576040519150601f19603f3d011682016040523d82523d6000602084013e611458565b606091505b50509050806114a95760405162461bcd60e51b815260206004820152601860248201527f4661696c656420746f2073656e6420746f2073656c6c657200000000000000006044820152606401610713565b50611563565b6014805460ff60301b191666080000000000001790556001546040516000916001600160a01b03169083908381818185875af1925050503d8060008114611512576040519150601f19603f3d011682016040523d82523d6000602084013e611517565b606091505b50509050806115615760405162461bcd60e51b81526020600482015260166024820152752330b4b632b2103a37903932b33ab73210313abcb2b960511b6044820152606401610713565b505b60405182151581527f8015c5005d9ad5d85ca80d3f894f08e0159277704c54166e5cff108800fa80cd9060200160405180910390a150610ab46001600055565b60606010805480602002602001604051908101604052809291908181526020016000905b828210156116735783829060005260206000200180546115e690612839565b80601f016020809104026020016040519081016040528092919081815260200182805461161290612839565b801561165f5780601f106116345761010080835404028352916020019161165f565b820191906000526020600020905b81548152906001019060200180831161164257829003601f168201915b5050505050815260200190600101906115c7565b50505050905090565b6002546001600160a01b031633146116a65760405162461bcd60e51b81526004016107139061276f565b601454600160201b900460ff16156116d05760405162461bcd60e51b815260040161071390612793565b6002601454600160301b900460ff1660088111156116f0576116f061231f565b146117505760405162461bcd60e51b815260206004820152602a60248201527f50726f64756374696f6e206e6f742073746172746564206f7220616c726561646044820152691e48199a5b9a5cda195960b21b6064820152608401610713565b6014805460ff60301b191666030000000000001790556040517f781e2ceec09322c77ecfac5ec2a4060d14c6ce905d733b5313732be934f439f790600090a1565b6002546001600160a01b031633146117bb5760405162461bcd60e51b81526004016107139061276f565b601454600160201b900460ff16156117e55760405162461bcd60e51b815260040161071390612793565b6003601454600160301b900460ff1660088111156118055761180561231f565b1461185c5760405162461bcd60e51b815260206004820152602160248201527f50726f64756374696f6e206d7573742062652066696e697368656420666972736044820152601d60fa1b6064820152608401610713565b601454610100900460ff16156118a65760405162461bcd60e51b815260206004820152600f60248201526e105b1c9958591e481cda1a5c1c1959608a1b6044820152606401610713565b60008351116118eb5760405162461bcd60e51b8152602060048201526011602482015270151c9858dada5b99c81c995c5d5a5c9959607a1b6044820152606401610713565b600c6118f78582612931565b50600d6119048482612931565b50600f6119118382612931565b5060005b81518110156119b4576010828281518110611932576119326129ef565b6020908102919091018101518254600181018455600093845291909220019061195b9082612931565b507f2f94469c930f78239164949b76d456603971fe911a8383b6007eb673c1b51e0d82828151811061198f5761198f6129ef565b60200260200101516040516119a491906124ad565b60405180910390a1600101611915565b506014805466ff00000000ff00191666040000000001001790556040517fb6462dcdfb1c84065533d5eef8ad89ff3d6755d584c1e1173765287462f2f62890611a009086908690612a05565b60405180910390a150505050565b6001546001600160a01b03163314611a385760405162461bcd60e51b815260040161071390612873565b611a406122f5565b60145462010000900460ff16611a915760405162461bcd60e51b8152602060048201526016602482015275125d195b481b9bdd081e595d0819195b1a5d995c995960521b6044820152606401610713565b6014546301000000900460ff1615611aeb5760405162461bcd60e51b815260206004820152601a60248201527f436f6e747261637420616c726561647920636f6d706c657465640000000000006044820152606401610713565b600880546000918290556014805466ff0000ff000000191666060000010000001790556002546040519192916001600160a01b039091169083908381818185875af1925050503d8060008114611b5d576040519150601f19603f3d011682016040523d82523d6000602084013e611b62565b606091505b5050905080610a095760405162461bcd60e51b815260206004820152601c60248201527f4661696c656420746f2073656e642066696e616c207061796d656e74000000006044820152606401610713565b600f8054610ae290612839565b6002546001600160a01b03163314611bea5760405162461bcd60e51b81526004016107139061276f565b601454600160201b900460ff1615611c145760405162461bcd60e51b815260040161071390612793565b611c1c6122f5565b601454610100900460ff16611c615760405162461bcd60e51b815260206004820152600b60248201526a139bdd081cda1a5c1c195960aa1b6044820152606401610713565b6014546301000000900460ff1615611c8b5760405162461bcd60e51b8152600401610713906127bb565b601454600160201b900460ff1615611cd55760405162461bcd60e51b815260206004820152600d60248201526c556e646572206469737075746560981b6044820152606401610713565b600b544211611d1c5760405162461bcd60e51b8152602060048201526013602482015272111958591b1a5b99481b9bdd081c185cdcd959606a1b6044820152606401610713565b600880546000918290556014805466ff0000ff000000191666060000010000001790556002546040519192916001600160a01b039091169083905b60006040518083038185875af1925050503d8060008114611d94576040519150601f19603f3d011682016040523d82523d6000602084013e611d99565b606091505b5050905080611ddc5760405162461bcd60e51b815260206004820152600f60248201526e151c985b9cd9995c8819985a5b1959608a1b6044820152606401610713565b5050610dba6001600055565b7ff0c57e16840df040f15088dc2f81fe391c3923bec73e23a9662efc9c229c6a008054600160401b810460ff1615906001600160401b0316600081158015611e2d5750825b90506000826001600160401b03166001148015611e495750303b155b905081158015611e57575080155b15611e755760405163f92ee8a960e01b815260040160405180910390fd5b845467ffffffffffffffff191660011785558315611e9f57845460ff60401b1916600160401b1785555b6001600160a01b038d16611ee55760405162461bcd60e51b815260206004820152600d60248201526c24b73b30b634b210313abcb2b960991b6044820152606401610713565b6001600160a01b038c16611f2c5760405162461bcd60e51b815260206004820152600e60248201526d24b73b30b634b21039b2b63632b960911b6044820152606401610713565b60008a11611f715760405162461bcd60e51b81526020600482015260126024820152710416d6f756e74206d757374206265203e20360741b6044820152606401610713565b60008811611fb85760405162461bcd60e51b815260206004820152601460248201527305175616e74697479206d757374206265203e20360641b6044820152606401610713565b60008711611ffb5760405162461bcd60e51b815260206004820152601060248201526f24b73b30b634b210323ab930ba34b7b760811b6044820152606401610713565b8c600160006101000a8154816001600160a01b0302191690836001600160a01b031602179055508b600260006101000a8154816001600160a01b0302191690836001600160a01b031602179055508a600360006101000a8154816001600160a01b0302191690836001600160a01b0316021790555033600460006101000a8154816001600160a01b0302191690836001600160a01b031602179055508960058190555060006006819055508960088190555088600990816120bc9190612931565b50600a8890556120cc87426127fc565b600b5542601355600e6120df8782612931565b506014805460ff60301b191690556040516001600160a01b03808e1691908f16907fce1e6bf60de0cb83b0dc94c84bb59699ad0638667144f8d343087a248d77d648906121319030908f908c90612a33565b60405180910390a3831561217f57845460ff60401b19168555604051600181527fc7f505b2f371ae2175ee4913f4499e1f2633a7b5936321eed1cdaeb6115181d29060200160405180910390a15b50505050505050505050505050565b6001546001600160a01b031633146121b85760405162461bcd60e51b815260040161071390612873565b601454600160201b900460ff16156121e25760405162461bcd60e51b815260040161071390612793565b6121ea6122f5565b600b5442116122315760405162461bcd60e51b8152602060048201526013602482015272111958591b1a5b99481b9bdd081c185cdcd959606a1b6044820152606401610713565b601454610100900460ff161561227b5760405162461bcd60e51b815260206004820152600f60248201526e105b1c9958591e481cda1a5c1c1959608a1b6044820152606401610713565b60145460ff166122ba5760405162461bcd60e51b815260206004820152600a602482015269139bdd08199d5b99195960b21b6044820152606401610713565b60088054600082556014805491929160ff60301b1916600160301b8302179055506001546040516000916001600160a01b0316908390611d57565b60026000540361231857604051633ee5aeb560e01b815260040160405180910390fd5b6002600055565b634e487b7160e01b600052602160045260246000fd5b602081016009831061235757634e487b7160e01b600052602160045260246000fd5b91905290565b634e487b7160e01b600052604160045260246000fd5b604051601f8201601f191681016001600160401b038111828210171561239b5761239b61235d565b604052919050565b600082601f8301126123b457600080fd5b81356001600160401b038111156123cd576123cd61235d565b6123e0601f8201601f1916602001612373565b8181528460208386010111156123f557600080fd5b816020850160208301376000918101602001919091529392505050565b60006020828403121561242457600080fd5b81356001600160401b0381111561243a57600080fd5b612446848285016123a3565b949350505050565b60006020828403121561246057600080fd5b5035919050565b6000815180845260005b8181101561248d57602081850181015186830182015201612471565b506000602082860101526020601f19601f83011685010191505092915050565b6020815260006124c06020830184612467565b9392505050565b6000602082840312156124d957600080fd5b813580151581146124c057600080fd5b6000602082016020835280845180835260408501915060408160051b86010192506020860160005b8281101561254257603f1987860301845261252d858351612467565b94506020938401939190910190600101612511565b50929695505050505050565b6000806000806080858703121561256457600080fd5b84356001600160401b0381111561257a57600080fd5b612586878288016123a3565b94505060208501356001600160401b038111156125a257600080fd5b6125ae878288016123a3565b93505060408501356001600160401b038111156125ca57600080fd5b6125d6878288016123a3565b92505060608501356001600160401b038111156125f257600080fd5b8501601f8101871361260357600080fd5b80356001600160401b0381111561261c5761261c61235d565b8060051b61262c60208201612373565b9182526020818401810192908101908a84111561264857600080fd5b6020850192505b8383101561268e5782356001600160401b0381111561266d57600080fd5b61267c8c6020838901016123a3565b8352506020928301929091019061264f565b979a9699509497505050505050565b80356001600160a01b03811681146126b457600080fd5b919050565b600080600080600080600080610100898b0312156126d657600080fd5b6126df8961269d565b97506126ed60208a0161269d565b96506126fb60408a0161269d565b95506060890135945060808901356001600160401b0381111561271d57600080fd5b6127298b828c016123a3565b94505060a0890135925060c0890135915060e08901356001600160401b0381111561275357600080fd5b61275f8b828c016123a3565b9150509295985092959890939650565b6020808252600a90820152692737ba1039b2b63632b960b11b604082015260600190565b6020808252600e908201526d446973707574652061637469766560901b604082015260600190565b602080825260119082015270105b1c9958591e4818dbdb5c1b195d1959607a1b604082015260600190565b634e487b7160e01b600052601160045260246000fd5b8082018082111561280f5761280f6127e6565b92915050565b6001600160a01b038316815260406020820181905260009061244690830184612467565b600181811c9082168061284d57607f821691505b60208210810361286d57634e487b7160e01b600052602260045260246000fd5b50919050565b6020808252600990820152682737ba10313abcb2b960b91b604082015260600190565b808202811582820484141761280f5761280f6127e6565b6000826128ca57634e487b7160e01b600052601260045260246000fd5b500490565b8181038181111561280f5761280f6127e6565b601f82111561292c57806000526020600020601f840160051c810160208510156129095750805b601f840160051c820191505b818110156129295760008155600101612915565b50505b505050565b81516001600160401b0381111561294a5761294a61235d565b61295e816129588454612839565b846128e2565b6020601f821160018114612992576000831561297a5750848201515b600019600385901b1c1916600184901b178455612929565b600084815260208120601f198516915b828110156129c257878501518255602094850194600190920191016129a2565b50848210156129e05786840151600019600387901b60f8161c191681555b50505050600190811b01905550565b634e487b7160e01b600052603260045260246000fd5b604081526000612a186040830185612467565b8281036020840152612a2a8185612467565b95945050505050565b60018060a01b0384168152826020820152606060408201526000612a2a606083018461246756fea2646970667358221220833cc33ce7adbca6a5c54d56fefafc4e98ffee085ea5bcccfc7ebb48f3d8e94c64736f6c634300081e0033",
  "devdoc": {
    "errors": {
      "InvalidInitialization()": [
        {
          "details": "The contract is already initialized."
        }
      ],
      "NotInitializing()": [
        {
          "details": "The contract is not initializing."
        }
      ],
      "ReentrancyGuardReentrantCall()": [
        {
          "details": "Unauthorized reentrant call."
        }
      ]
    },
    "events": {
      "Initialized(uint64)": {
        "details": "Triggered when the contract has been initialized or reinitialized."
      }
    },
    "kind": "dev",
    "methods": {
      "constructor": {
        "custom:oz-upgrades-unsafe-allow": "constructor"
      },
      "initialize(address,address,address,uint256,string,uint256,uint256,string)": {
        "params": {
          "_deliveryDurationSeconds": "Delivery duration in seconds from now"
        }
      }
    },
    "version": 1
  },
  "userdoc": {
    "kind": "user",
    "methods": {
      "acceptContract()": {
        "notice": "Seller accepts the terms and PO"
      },
      "buyerCompletecontract(string)": {
        "notice": "Buyer Completes contract after checking the machine/item are working "
      },
      "confirmDelivery()": {
        "notice": "Buyer confirms delivery and releases 50% of remaining"
      },
      "depositAndStartProduction()": {
        "notice": "Buyer deposits MON and starts production"
      },
      "finishProduction()": {
        "notice": "Seller marks production as finished"
      },
      "markShipped(string,string,string,string[])": {
        "notice": "Seller marks the item as shipped"
      },
      "sellerClaimFinalPayment(string)": {
        "notice": "Seller claims remaining funds if buyer doesn't complete or dispute within 14 days of delivery"
      }
    },
    "version": 1
  },
  "storageLayout": {
    "storage": [
      {
        "astId": 2410,
        "contract": "contracts/SupplyChainEscrow.sol:SupplyChainEscrow",
        "label": "_status",
        "offset": 0,
        "slot": "0",
        "type": "t_uint256"
      },
      {
        "astId": 4246,
        "contract": "contracts/SupplyChainEscrow.sol:SupplyChainEscrow",
        "label": "buyer",
        "offset": 0,
        "slot": "1",
        "type": "t_address"
      },
      {
        "astId": 4248,
        "contract": "contracts/SupplyChainEscrow.sol:SupplyChainEscrow",
        "label": "seller",
        "offset": 0,
        "slot": "2",
        "type": "t_address"
      },
      {
        "astId": 4250,
        "contract": "contracts/SupplyChainEscrow.sol:SupplyChainEscrow",
        "label": "arbitrator",
        "offset": 0,
        "slot": "3",
        "type": "t_address"
      },
      {
        "astId": 4252,
        "contract": "contracts/SupplyChainEscrow.sol:SupplyChainEscrow",
        "label": "factory",
        "offset": 0,
        "slot": "4",
        "type": "t_address"
      },
      {
        "astId": 4254,
        "contract": "contracts/SupplyChainEscrow.sol:SupplyChainEscrow",
        "label": "totalAmount",
        "offset": 0,
        "slot": "5",
        "type": "t_uint256"
      },
      {
        "astId": 4256,
        "contract": "contracts/SupplyChainEscrow.sol:SupplyChainEscrow",
        "label": "productionAmount",
        "offset": 0,
        "slot": "6",
        "type": "t_uint256"
      },
      {
        "astId": 4258,
        "contract": "contracts/SupplyChainEscrow.sol:SupplyChainEscrow",
        "label": "AfterDeliverAmount",
        "offset": 0,
        "slot": "7",
        "type": "t_uint256"
      },
      {
        "astId": 4260,
        "contract": "contracts/SupplyChainEscrow.sol:SupplyChainEscrow",
        "label": "remainingAmount",
        "offset": 0,
        "slot": "8",
        "type": "t_uint256"
      },
      {
        "astId": 4262,
        "contract": "contracts/SupplyChainEscrow.sol:SupplyChainEscrow",
        "label": "itemName",
        "offset": 0,
        "slot": "9",
        "type": "t_string_storage"
      },
      {
        "astId": 4264,
        "contract": "contracts/SupplyChainEscrow.sol:SupplyChainEscrow",
        "label": "quantity",
        "offset": 0,
        "slot": "10",
        "type": "t_uint256"
      },
      {
        "astId": 4266,
        "contract": "contracts/SupplyChainEscrow.sol:SupplyChainEscrow",
        "label": "deliveryDeadline",
        "offset": 0,
        "slot": "11",
        "type": "t_uint256"
      },
      {
        "astId": 4268,
        "contract": "contracts/SupplyChainEscrow.sol:SupplyChainEscrow",
        "label": "shippingProvider",
        "offset": 0,
        "slot": "12",
        "type": "t_string_storage"
      },
      {
        "astId": 4270,
        "contract": "contracts/SupplyChainEscrow.sol:SupplyChainEscrow",
        "label": "trackingNumber",
        "offset": 0,
        "slot": "13",
        "type": "t_string_storage"
      },
      {
        "astId": 4272,
        "contract": "contracts/SupplyChainEscrow.sol:SupplyChainEscrow",
        "label": "poCid",
        "offset": 0,
        "slot": "14",
        "type": "t_string_storage"
      },
      {
        "astId": 4274,
        "contract": "contracts/SupplyChainEscrow.sol:SupplyChainEscrow",
        "label": "shippingCid",
        "offset": 0,
        "slot": "15",
        "type": "t_string_storage"
      },
      {
        "astId": 4277,
        "contract": "contracts/SupplyChainEscrow.sol:SupplyChainEscrow",
        "label": "productionLogs",
        "offset": 0,
        "slot": "16",
        "type": "t_array(t_string_storage)dyn_storage"
      },
      {
        "astId": 4279,
        "contract": "contracts/SupplyChainEscrow.sol:SupplyChainEscrow",
        "label": "disputeReason",
        "offset": 0,
        "slot": "17",
        "type": "t_string_storage"
      },
      {
        "astId": 4281,
        "contract": "contracts/SupplyChainEscrow.sol:SupplyChainEscrow",
        "label": "deliveredAt",
        "offset": 0,
        "slot": "18",
        "type": "t_uint256"
      },
      {
        "astId": 4283,
        "contract": "contracts/SupplyChainEscrow.sol:SupplyChainEscrow",
        "label": "createdAt",
        "offset": 0,
        "slot": "19",
        "type": "t_uint256"
      },
      {
        "astId": 4285,
        "contract": "contracts/SupplyChainEscrow.sol:SupplyChainEscrow",
        "label": "deposited",
        "offset": 0,
        "slot": "20",
        "type": "t_bool"
      },
      {
        "astId": 4287,
        "contract": "contracts/SupplyChainEscrow.sol:SupplyChainEscrow",
        "label": "shipped",
        "offset": 1,
        "slot": "20",
        "type": "t_bool"
      },
      {
        "astId": 4289,
        "contract": "contracts/SupplyChainEscrow.sol:SupplyChainEscrow",
        "label": "delivered",
        "offset": 2,
        "slot": "20",
        "type": "t_bool"
      },
      {
        "astId": 4291,
        "contract": "contracts/SupplyChainEscrow.sol:SupplyChainEscrow",
        "label": "completed",
        "offset": 3,
        "slot": "20",
        "type": "t_bool"
      },
      {
        "astId": 4293,
        "contract": "contracts/SupplyChainEscrow.sol:SupplyChainEscrow",
        "label": "disputed",
        "offset": 4,
        "slot": "20",
        "type": "t_bool"
      },
      {
        "astId": 4295,
        "contract": "contracts/SupplyChainEscrow.sol:SupplyChainEscrow",
        "label": "sellerAccepted",
        "offset": 5,
        "slot": "20",
        "type": "t_bool"
      },
      {
        "astId": 4308,
        "contract": "contracts/SupplyChainEscrow.sol:SupplyChainEscrow",
        "label": "status",
        "offset": 6,
        "slot": "20",
        "type": "t_enum(Status)4305"
      }
    ],
    "types": {
      "t_address": {
        "encoding": "inplace",
        "label": "address",
        "numberOfBytes": "20"
      },
      "t_array(t_string_storage)dyn_storage": {
        "base": "t_string_storage",
        "encoding": "dynamic_array",
        "label": "string[]",
        "numberOfBytes": "32"
      },
      "t_bool": {
        "encoding": "inplace",
        "label": "bool",
        "numberOfBytes": "1"
      },
      "t_enum(Status)4305": {
        "encoding": "inplace",
        "label": "enum SupplyChainEscrow.Status",
        "numberOfBytes": "1"
      },
      "t_string_storage": {
        "encoding": "bytes",
        "label": "string",
        "numberOfBytes": "32"
      },
      "t_uint256": {
        "encoding": "inplace",
        "label": "uint256",
        "numberOfBytes": "32"
      }
    }
  }
}